{
	"Wallet.sol": {
		"Wallet": {
			"abi": [
				{
					"inputs": [],
					"name": "getBalance",
					"outputs": [
						{
							"internalType": "uint256",
							"name": "",
							"type": "uint256"
						}
					],
					"stateMutability": "view",
					"type": "function"
				},
				{
					"inputs": [
						{
							"internalType": "address payable",
							"name": "_to",
							"type": "address"
						}
					],
					"name": "withdrawAllMoney",
					"outputs": [],
					"stateMutability": "nonpayable",
					"type": "function"
				},
				{
					"inputs": [
						{
							"internalType": "address payable",
							"name": "_to",
							"type": "address"
						},
						{
							"internalType": "uint256",
							"name": "_amount",
							"type": "uint256"
						}
					],
					"name": "withdrawMoney",
					"outputs": [],
					"stateMutability": "nonpayable",
					"type": "function"
				},
				{
					"stateMutability": "payable",
					"type": "receive"
				}
			],
			"devdoc": {
				"kind": "dev",
				"methods": {},
				"version": 1
			},
			"evm": {
				"assembly": "    /* \"Wallet.sol\":51:2145  contract Wallet is Owner {\r... */\n  mstore(0x40, 0x80)\n  callvalue\n  dup1\n  iszero\n  tag_1\n  jumpi\n  0x00\n  dup1\n  revert\ntag_1:\n  pop\n    /* \"Owner.sol\":179:189  msg.sender */\n  caller\n    /* \"Owner.sol\":171:176  owner */\n  0x00\n  dup1\n    /* \"Owner.sol\":171:189  owner = msg.sender */\n  0x0100\n  exp\n  dup2\n  sload\n  dup2\n  0xffffffffffffffffffffffffffffffffffffffff\n  mul\n  not\n  and\n  swap1\n  dup4\n  0xffffffffffffffffffffffffffffffffffffffff\n  and\n  mul\n  or\n  swap1\n  sstore\n  pop\n    /* \"Wallet.sol\":51:2145  contract Wallet is Owner {\r... */\n  dataSize(sub_0)\n  dup1\n  dataOffset(sub_0)\n  0x00\n  codecopy\n  0x00\n  return\nstop\n\nsub_0: assembly {\n        /* \"Wallet.sol\":51:2145  contract Wallet is Owner {\r... */\n      mstore(0x40, 0x80)\n      jumpi(tag_1, lt(calldatasize, 0x04))\n      shr(0xe0, calldataload(0x00))\n      dup1\n      0x0adec93c\n      eq\n      tag_3\n      jumpi\n      dup1\n      0x12065fe0\n      eq\n      tag_4\n      jumpi\n      dup1\n      0xf274c897\n      eq\n      tag_5\n      jumpi\n      jump(tag_2)\n    tag_1:\n      jumpi(tag_2, calldatasize)\n        /* \"Wallet.sol\":1759:1785  Payment memory thisPayment */\n      0x00\n        /* \"Wallet.sol\":1788:1823  Payment(msg.value, block.timestamp) */\n      mload(0x40)\n      dup1\n      0x40\n      add\n      0x40\n      mstore\n      dup1\n        /* \"Wallet.sol\":1796:1805  msg.value */\n      callvalue\n        /* \"Wallet.sol\":1788:1823  Payment(msg.value, block.timestamp) */\n      dup2\n      mstore\n      0x20\n      add\n        /* \"Wallet.sol\":1807:1822  block.timestamp */\n      timestamp\n        /* \"Wallet.sol\":1788:1823  Payment(msg.value, block.timestamp) */\n      dup2\n      mstore\n      pop\n        /* \"Wallet.sol\":1759:1823  Payment memory thisPayment = Payment(msg.value, block.timestamp) */\n      swap1\n      pop\n        /* \"Wallet.sol\":1910:1919  msg.value */\n      callvalue\n        /* \"Wallet.sol\":1874:1881  Wallets */\n      0x01\n        /* \"Wallet.sol\":1874:1893  Wallets[msg.sender] */\n      0x00\n        /* \"Wallet.sol\":1882:1892  msg.sender */\n      caller\n        /* \"Wallet.sol\":1874:1893  Wallets[msg.sender] */\n      0xffffffffffffffffffffffffffffffffffffffff\n      and\n      0xffffffffffffffffffffffffffffffffffffffff\n      and\n      dup2\n      mstore\n      0x20\n      add\n      swap1\n      dup2\n      mstore\n      0x20\n      add\n      0x00\n      keccak256\n        /* \"Wallet.sol\":1874:1906  Wallets[msg.sender].totalBalance */\n      0x00\n      add\n      0x00\n        /* \"Wallet.sol\":1874:1919  Wallets[msg.sender].totalBalance += msg.value */\n      dup3\n      dup3\n      sload\n      tag_8\n      swap2\n      swap1\n      tag_9\n      jump\t// in\n    tag_8:\n      swap3\n      pop\n      pop\n      dup2\n      swap1\n      sstore\n      pop\n        /* \"Wallet.sol\":2034:2045  thisPayment */\n      dup1\n        /* \"Wallet.sol\":1970:1977  Wallets */\n      0x01\n        /* \"Wallet.sol\":1970:1989  Wallets[msg.sender] */\n      0x00\n        /* \"Wallet.sol\":1978:1988  msg.sender */\n      caller\n        /* \"Wallet.sol\":1970:1989  Wallets[msg.sender] */\n      0xffffffffffffffffffffffffffffffffffffffff\n      and\n      0xffffffffffffffffffffffffffffffffffffffff\n      and\n      dup2\n      mstore\n      0x20\n      add\n      swap1\n      dup2\n      mstore\n      0x20\n      add\n      0x00\n      keccak256\n        /* \"Wallet.sol\":1970:1998  Wallets[msg.sender].payments */\n      0x02\n      add\n        /* \"Wallet.sol\":1970:2031  Wallets[msg.sender].payments[Wallets[msg.sender].numPayments] */\n      0x00\n        /* \"Wallet.sol\":1999:2006  Wallets */\n      0x01\n        /* \"Wallet.sol\":1999:2018  Wallets[msg.sender] */\n      0x00\n        /* \"Wallet.sol\":2007:2017  msg.sender */\n      caller\n        /* \"Wallet.sol\":1999:2018  Wallets[msg.sender] */\n      0xffffffffffffffffffffffffffffffffffffffff\n      and\n      0xffffffffffffffffffffffffffffffffffffffff\n      and\n      dup2\n      mstore\n      0x20\n      add\n      swap1\n      dup2\n      mstore\n      0x20\n      add\n      0x00\n      keccak256\n        /* \"Wallet.sol\":1999:2030  Wallets[msg.sender].numPayments */\n      0x01\n      add\n      sload\n        /* \"Wallet.sol\":1970:2031  Wallets[msg.sender].payments[Wallets[msg.sender].numPayments] */\n      dup2\n      mstore\n      0x20\n      add\n      swap1\n      dup2\n      mstore\n      0x20\n      add\n      0x00\n      keccak256\n        /* \"Wallet.sol\":1970:2045  Wallets[msg.sender].payments[Wallets[msg.sender].numPayments] = thisPayment */\n      0x00\n      dup3\n      add\n      mload\n      dup2\n      0x00\n      add\n      sstore\n      0x20\n      dup3\n      add\n      mload\n      dup2\n      0x01\n      add\n      sstore\n      swap1\n      pop\n      pop\n        /* \"Wallet.sol\":2101:2108  Wallets */\n      0x01\n        /* \"Wallet.sol\":2101:2120  Wallets[msg.sender] */\n      0x00\n        /* \"Wallet.sol\":2109:2119  msg.sender */\n      caller\n        /* \"Wallet.sol\":2101:2120  Wallets[msg.sender] */\n      0xffffffffffffffffffffffffffffffffffffffff\n      and\n      0xffffffffffffffffffffffffffffffffffffffff\n      and\n      dup2\n      mstore\n      0x20\n      add\n      swap1\n      dup2\n      mstore\n      0x20\n      add\n      0x00\n      keccak256\n        /* \"Wallet.sol\":2101:2132  Wallets[msg.sender].numPayments */\n      0x01\n      add\n      0x00\n        /* \"Wallet.sol\":2101:2134  Wallets[msg.sender].numPayments++ */\n      dup2\n      sload\n      dup1\n      swap3\n      swap2\n      swap1\n      tag_10\n      swap1\n      tag_11\n      jump\t// in\n    tag_10:\n      swap2\n      swap1\n      pop\n      sstore\n      pop\n        /* \"Wallet.sol\":1719:2142  {\r... */\n      pop\n        /* \"Wallet.sol\":51:2145  contract Wallet is Owner {\r... */\n      stop\n    tag_2:\n      0x00\n      dup1\n      revert\n        /* \"Wallet.sol\":807:1139  function withdrawAllMoney(address payable _to) public{\r... */\n    tag_3:\n      callvalue\n      dup1\n      iszero\n      tag_12\n      jumpi\n      0x00\n      dup1\n      revert\n    tag_12:\n      pop\n      tag_13\n      0x04\n      dup1\n      calldatasize\n      sub\n      dup2\n      add\n      swap1\n      tag_14\n      swap2\n      swap1\n      tag_15\n      jump\t// in\n    tag_14:\n      tag_16\n      jump\t// in\n    tag_13:\n      stop\n        /* \"Wallet.sol\":653:755  function getBalance() public isOwner view returns(uint){\r... */\n    tag_4:\n      callvalue\n      dup1\n      iszero\n      tag_17\n      jumpi\n      0x00\n      dup1\n      revert\n    tag_17:\n      pop\n      tag_18\n      tag_19\n      jump\t// in\n    tag_18:\n      mload(0x40)\n      tag_20\n      swap2\n      swap1\n      tag_21\n      jump\t// in\n    tag_20:\n      mload(0x40)\n      dup1\n      swap2\n      sub\n      swap1\n      return\n        /* \"Wallet.sol\":1203:1662  function withdrawMoney(address payable _to, uint _amount) public{\r... */\n    tag_5:\n      callvalue\n      dup1\n      iszero\n      tag_22\n      jumpi\n      0x00\n      dup1\n      revert\n    tag_22:\n      pop\n      tag_23\n      0x04\n      dup1\n      calldatasize\n      sub\n      dup2\n      add\n      swap1\n      tag_24\n      swap2\n      swap1\n      tag_25\n      jump\t// in\n    tag_24:\n      tag_26\n      jump\t// in\n    tag_23:\n      stop\n        /* \"Wallet.sol\":807:1139  function withdrawAllMoney(address payable _to) public{\r... */\n    tag_16:\n        /* \"Wallet.sol\":906:917  uint amount */\n      0x00\n        /* \"Wallet.sol\":920:927  Wallets */\n      0x01\n        /* \"Wallet.sol\":920:939  Wallets[msg.sender] */\n      0x00\n        /* \"Wallet.sol\":928:938  msg.sender */\n      caller\n        /* \"Wallet.sol\":920:939  Wallets[msg.sender] */\n      0xffffffffffffffffffffffffffffffffffffffff\n      and\n      0xffffffffffffffffffffffffffffffffffffffff\n      and\n      dup2\n      mstore\n      0x20\n      add\n      swap1\n      dup2\n      mstore\n      0x20\n      add\n      0x00\n      keccak256\n        /* \"Wallet.sol\":920:952  Wallets[msg.sender].totalBalance */\n      0x00\n      add\n      sload\n        /* \"Wallet.sol\":906:952  uint amount = Wallets[msg.sender].totalBalance */\n      swap1\n      pop\n        /* \"Wallet.sol\":1047:1048  0 */\n      0x00\n        /* \"Wallet.sol\":1012:1019  Wallets */\n      0x01\n        /* \"Wallet.sol\":1012:1031  Wallets[msg.sender] */\n      0x00\n        /* \"Wallet.sol\":1020:1030  msg.sender */\n      caller\n        /* \"Wallet.sol\":1012:1031  Wallets[msg.sender] */\n      0xffffffffffffffffffffffffffffffffffffffff\n      and\n      0xffffffffffffffffffffffffffffffffffffffff\n      and\n      dup2\n      mstore\n      0x20\n      add\n      swap1\n      dup2\n      mstore\n      0x20\n      add\n      0x00\n      keccak256\n        /* \"Wallet.sol\":1012:1044  Wallets[msg.sender].totalBalance */\n      0x00\n      add\n        /* \"Wallet.sol\":1012:1048  Wallets[msg.sender].totalBalance = 0 */\n      dup2\n      swap1\n      sstore\n      pop\n        /* \"Wallet.sol\":1111:1114  _to */\n      dup2\n        /* \"Wallet.sol\":1111:1123  _to.transfer */\n      0xffffffffffffffffffffffffffffffffffffffff\n      and\n        /* \"Wallet.sol\":1111:1131  _to.transfer(amount) */\n      0x08fc\n        /* \"Wallet.sol\":1124:1130  amount */\n      dup3\n        /* \"Wallet.sol\":1111:1131  _to.transfer(amount) */\n      swap1\n      dup2\n      iszero\n      mul\n      swap1\n      mload(0x40)\n      0x00\n      mload(0x40)\n      dup1\n      dup4\n      sub\n      dup2\n      dup6\n      dup9\n      dup9\n      call\n      swap4\n      pop\n      pop\n      pop\n      pop\n      iszero\n      dup1\n      iszero\n      tag_29\n      jumpi\n      returndatasize\n      0x00\n      dup1\n      returndatacopy\n      revert(0x00, returndatasize)\n    tag_29:\n      pop\n        /* \"Wallet.sol\":860:1139  {\r... */\n      pop\n        /* \"Wallet.sol\":807:1139  function withdrawAllMoney(address payable _to) public{\r... */\n      pop\n      jump\t// out\n        /* \"Wallet.sol\":653:755  function getBalance() public isOwner view returns(uint){\r... */\n    tag_19:\n        /* \"Wallet.sol\":703:707  uint */\n      0x00\n        /* \"Owner.sol\":305:310  owner */\n      dup1\n      0x00\n      swap1\n      sload\n      swap1\n      0x0100\n      exp\n      swap1\n      div\n      0xffffffffffffffffffffffffffffffffffffffff\n      and\n        /* \"Owner.sol\":291:310  msg.sender == owner */\n      0xffffffffffffffffffffffffffffffffffffffff\n      and\n        /* \"Owner.sol\":291:301  msg.sender */\n      caller\n        /* \"Owner.sol\":291:310  msg.sender == owner */\n      0xffffffffffffffffffffffffffffffffffffffff\n      and\n      eq\n        /* \"Owner.sol\":283:328  require(msg.sender == owner, \"Not the owner\") */\n      tag_31\n      jumpi\n      mload(0x40)\n      0x08c379a000000000000000000000000000000000000000000000000000000000\n      dup2\n      mstore\n      0x04\n      add\n      tag_32\n      swap1\n      tag_33\n      jump\t// in\n    tag_32:\n      mload(0x40)\n      dup1\n      swap2\n      sub\n      swap1\n      revert\n    tag_31:\n        /* \"Wallet.sol\":726:747  address(this).balance */\n      selfbalance\n        /* \"Wallet.sol\":719:747  return address(this).balance */\n      swap1\n      pop\n        /* \"Wallet.sol\":653:755  function getBalance() public isOwner view returns(uint){\r... */\n      swap1\n      jump\t// out\n        /* \"Wallet.sol\":1203:1662  function withdrawMoney(address payable _to, uint _amount) public{\r... */\n    tag_26:\n        /* \"Wallet.sol\":1394:1401  Wallets */\n      0x01\n        /* \"Wallet.sol\":1394:1413  Wallets[msg.sender] */\n      0x00\n        /* \"Wallet.sol\":1402:1412  msg.sender */\n      caller\n        /* \"Wallet.sol\":1394:1413  Wallets[msg.sender] */\n      0xffffffffffffffffffffffffffffffffffffffff\n      and\n      0xffffffffffffffffffffffffffffffffffffffff\n      and\n      dup2\n      mstore\n      0x20\n      add\n      swap1\n      dup2\n      mstore\n      0x20\n      add\n      0x00\n      keccak256\n        /* \"Wallet.sol\":1394:1426  Wallets[msg.sender].totalBalance */\n      0x00\n      add\n      sload\n        /* \"Wallet.sol\":1383:1390  _amount */\n      dup2\n        /* \"Wallet.sol\":1383:1426  _amount <= Wallets[msg.sender].totalBalance */\n      gt\n      iszero\n        /* \"Wallet.sol\":1375:1448  require(_amount <= Wallets[msg.sender].totalBalance, \"Not enought funds\") */\n      tag_36\n      jumpi\n      mload(0x40)\n      0x08c379a000000000000000000000000000000000000000000000000000000000\n      dup2\n      mstore\n      0x04\n      add\n      tag_37\n      swap1\n      tag_38\n      jump\t// in\n    tag_37:\n      mload(0x40)\n      dup1\n      swap2\n      sub\n      swap1\n      revert\n    tag_36:\n        /* \"Wallet.sol\":1563:1570  _amount */\n      dup1\n        /* \"Wallet.sol\":1527:1534  Wallets */\n      0x01\n        /* \"Wallet.sol\":1527:1546  Wallets[msg.sender] */\n      0x00\n        /* \"Wallet.sol\":1535:1545  msg.sender */\n      caller\n        /* \"Wallet.sol\":1527:1546  Wallets[msg.sender] */\n      0xffffffffffffffffffffffffffffffffffffffff\n      and\n      0xffffffffffffffffffffffffffffffffffffffff\n      and\n      dup2\n      mstore\n      0x20\n      add\n      swap1\n      dup2\n      mstore\n      0x20\n      add\n      0x00\n      keccak256\n        /* \"Wallet.sol\":1527:1559  Wallets[msg.sender].totalBalance */\n      0x00\n      add\n      0x00\n        /* \"Wallet.sol\":1527:1570  Wallets[msg.sender].totalBalance -= _amount */\n      dup3\n      dup3\n      sload\n      tag_39\n      swap2\n      swap1\n      tag_40\n      jump\t// in\n    tag_39:\n      swap3\n      pop\n      pop\n      dup2\n      swap1\n      sstore\n      pop\n        /* \"Wallet.sol\":1633:1636  _to */\n      dup2\n        /* \"Wallet.sol\":1633:1645  _to.transfer */\n      0xffffffffffffffffffffffffffffffffffffffff\n      and\n        /* \"Wallet.sol\":1633:1654  _to.transfer(_amount) */\n      0x08fc\n        /* \"Wallet.sol\":1646:1653  _amount */\n      dup3\n        /* \"Wallet.sol\":1633:1654  _to.transfer(_amount) */\n      swap1\n      dup2\n      iszero\n      mul\n      swap1\n      mload(0x40)\n      0x00\n      mload(0x40)\n      dup1\n      dup4\n      sub\n      dup2\n      dup6\n      dup9\n      dup9\n      call\n      swap4\n      pop\n      pop\n      pop\n      pop\n      iszero\n      dup1\n      iszero\n      tag_42\n      jumpi\n      returndatasize\n      0x00\n      dup1\n      returndatacopy\n      revert(0x00, returndatasize)\n    tag_42:\n      pop\n        /* \"Wallet.sol\":1203:1662  function withdrawMoney(address payable _to, uint _amount) public{\r... */\n      pop\n      pop\n      jump\t// out\n        /* \"#utility.yul\":7:162   */\n    tag_44:\n        /* \"#utility.yul\":61:66   */\n      0x00\n        /* \"#utility.yul\":99:105   */\n      dup2\n        /* \"#utility.yul\":86:106   */\n      calldataload\n        /* \"#utility.yul\":77:106   */\n      swap1\n      pop\n        /* \"#utility.yul\":115:156   */\n      tag_46\n        /* \"#utility.yul\":150:155   */\n      dup2\n        /* \"#utility.yul\":115:156   */\n      tag_47\n      jump\t// in\n    tag_46:\n        /* \"#utility.yul\":67:162   */\n      swap3\n      swap2\n      pop\n      pop\n      jump\t// out\n        /* \"#utility.yul\":168:307   */\n    tag_48:\n        /* \"#utility.yul\":214:219   */\n      0x00\n        /* \"#utility.yul\":252:258   */\n      dup2\n        /* \"#utility.yul\":239:259   */\n      calldataload\n        /* \"#utility.yul\":230:259   */\n      swap1\n      pop\n        /* \"#utility.yul\":268:301   */\n      tag_50\n        /* \"#utility.yul\":295:300   */\n      dup2\n        /* \"#utility.yul\":268:301   */\n      tag_51\n      jump\t// in\n    tag_50:\n        /* \"#utility.yul\":220:307   */\n      swap3\n      swap2\n      pop\n      pop\n      jump\t// out\n        /* \"#utility.yul\":313:658   */\n    tag_15:\n        /* \"#utility.yul\":380:386   */\n      0x00\n        /* \"#utility.yul\":429:431   */\n      0x20\n        /* \"#utility.yul\":417:426   */\n      dup3\n        /* \"#utility.yul\":408:415   */\n      dup5\n        /* \"#utility.yul\":404:427   */\n      sub\n        /* \"#utility.yul\":400:432   */\n      slt\n        /* \"#utility.yul\":397:399   */\n      iszero\n      tag_53\n      jumpi\n        /* \"#utility.yul\":435:514   */\n      tag_54\n      tag_55\n      jump\t// in\n    tag_54:\n        /* \"#utility.yul\":397:399   */\n    tag_53:\n        /* \"#utility.yul\":555:556   */\n      0x00\n        /* \"#utility.yul\":580:641   */\n      tag_56\n        /* \"#utility.yul\":633:640   */\n      dup5\n        /* \"#utility.yul\":624:630   */\n      dup3\n        /* \"#utility.yul\":613:622   */\n      dup6\n        /* \"#utility.yul\":609:631   */\n      add\n        /* \"#utility.yul\":580:641   */\n      tag_44\n      jump\t// in\n    tag_56:\n        /* \"#utility.yul\":570:641   */\n      swap2\n      pop\n        /* \"#utility.yul\":526:651   */\n      pop\n        /* \"#utility.yul\":387:658   */\n      swap3\n      swap2\n      pop\n      pop\n      jump\t// out\n        /* \"#utility.yul\":664:1154   */\n    tag_25:\n        /* \"#utility.yul\":740:746   */\n      0x00\n        /* \"#utility.yul\":748:754   */\n      dup1\n        /* \"#utility.yul\":797:799   */\n      0x40\n        /* \"#utility.yul\":785:794   */\n      dup4\n        /* \"#utility.yul\":776:783   */\n      dup6\n        /* \"#utility.yul\":772:795   */\n      sub\n        /* \"#utility.yul\":768:800   */\n      slt\n        /* \"#utility.yul\":765:767   */\n      iszero\n      tag_58\n      jumpi\n        /* \"#utility.yul\":803:882   */\n      tag_59\n      tag_55\n      jump\t// in\n    tag_59:\n        /* \"#utility.yul\":765:767   */\n    tag_58:\n        /* \"#utility.yul\":923:924   */\n      0x00\n        /* \"#utility.yul\":948:1009   */\n      tag_60\n        /* \"#utility.yul\":1001:1008   */\n      dup6\n        /* \"#utility.yul\":992:998   */\n      dup3\n        /* \"#utility.yul\":981:990   */\n      dup7\n        /* \"#utility.yul\":977:999   */\n      add\n        /* \"#utility.yul\":948:1009   */\n      tag_44\n      jump\t// in\n    tag_60:\n        /* \"#utility.yul\":938:1009   */\n      swap3\n      pop\n        /* \"#utility.yul\":894:1019   */\n      pop\n        /* \"#utility.yul\":1058:1060   */\n      0x20\n        /* \"#utility.yul\":1084:1137   */\n      tag_61\n        /* \"#utility.yul\":1129:1136   */\n      dup6\n        /* \"#utility.yul\":1120:1126   */\n      dup3\n        /* \"#utility.yul\":1109:1118   */\n      dup7\n        /* \"#utility.yul\":1105:1127   */\n      add\n        /* \"#utility.yul\":1084:1137   */\n      tag_48\n      jump\t// in\n    tag_61:\n        /* \"#utility.yul\":1074:1137   */\n      swap2\n      pop\n        /* \"#utility.yul\":1029:1147   */\n      pop\n        /* \"#utility.yul\":755:1154   */\n      swap3\n      pop\n      swap3\n      swap1\n      pop\n      jump\t// out\n        /* \"#utility.yul\":1160:1526   */\n    tag_62:\n        /* \"#utility.yul\":1302:1305   */\n      0x00\n        /* \"#utility.yul\":1323:1390   */\n      tag_64\n        /* \"#utility.yul\":1387:1389   */\n      0x0d\n        /* \"#utility.yul\":1382:1385   */\n      dup4\n        /* \"#utility.yul\":1323:1390   */\n      tag_65\n      jump\t// in\n    tag_64:\n        /* \"#utility.yul\":1316:1390   */\n      swap2\n      pop\n        /* \"#utility.yul\":1399:1492   */\n      tag_66\n        /* \"#utility.yul\":1488:1491   */\n      dup3\n        /* \"#utility.yul\":1399:1492   */\n      tag_67\n      jump\t// in\n    tag_66:\n        /* \"#utility.yul\":1517:1519   */\n      0x20\n        /* \"#utility.yul\":1512:1515   */\n      dup3\n        /* \"#utility.yul\":1508:1520   */\n      add\n        /* \"#utility.yul\":1501:1520   */\n      swap1\n      pop\n        /* \"#utility.yul\":1306:1526   */\n      swap2\n      swap1\n      pop\n      jump\t// out\n        /* \"#utility.yul\":1532:1898   */\n    tag_68:\n        /* \"#utility.yul\":1674:1677   */\n      0x00\n        /* \"#utility.yul\":1695:1762   */\n      tag_70\n        /* \"#utility.yul\":1759:1761   */\n      0x11\n        /* \"#utility.yul\":1754:1757   */\n      dup4\n        /* \"#utility.yul\":1695:1762   */\n      tag_65\n      jump\t// in\n    tag_70:\n        /* \"#utility.yul\":1688:1762   */\n      swap2\n      pop\n        /* \"#utility.yul\":1771:1864   */\n      tag_71\n        /* \"#utility.yul\":1860:1863   */\n      dup3\n        /* \"#utility.yul\":1771:1864   */\n      tag_72\n      jump\t// in\n    tag_71:\n        /* \"#utility.yul\":1889:1891   */\n      0x20\n        /* \"#utility.yul\":1884:1887   */\n      dup3\n        /* \"#utility.yul\":1880:1892   */\n      add\n        /* \"#utility.yul\":1873:1892   */\n      swap1\n      pop\n        /* \"#utility.yul\":1678:1898   */\n      swap2\n      swap1\n      pop\n      jump\t// out\n        /* \"#utility.yul\":1904:2022   */\n    tag_73:\n        /* \"#utility.yul\":1991:2015   */\n      tag_75\n        /* \"#utility.yul\":2009:2014   */\n      dup2\n        /* \"#utility.yul\":1991:2015   */\n      tag_76\n      jump\t// in\n    tag_75:\n        /* \"#utility.yul\":1986:1989   */\n      dup3\n        /* \"#utility.yul\":1979:2016   */\n      mstore\n        /* \"#utility.yul\":1969:2022   */\n      pop\n      pop\n      jump\t// out\n        /* \"#utility.yul\":2028:2447   */\n    tag_33:\n        /* \"#utility.yul\":2194:2198   */\n      0x00\n        /* \"#utility.yul\":2232:2234   */\n      0x20\n        /* \"#utility.yul\":2221:2230   */\n      dup3\n        /* \"#utility.yul\":2217:2235   */\n      add\n        /* \"#utility.yul\":2209:2235   */\n      swap1\n      pop\n        /* \"#utility.yul\":2281:2290   */\n      dup2\n        /* \"#utility.yul\":2275:2279   */\n      dup2\n        /* \"#utility.yul\":2271:2291   */\n      sub\n        /* \"#utility.yul\":2267:2268   */\n      0x00\n        /* \"#utility.yul\":2256:2265   */\n      dup4\n        /* \"#utility.yul\":2252:2269   */\n      add\n        /* \"#utility.yul\":2245:2292   */\n      mstore\n        /* \"#utility.yul\":2309:2440   */\n      tag_78\n        /* \"#utility.yul\":2435:2439   */\n      dup2\n        /* \"#utility.yul\":2309:2440   */\n      tag_62\n      jump\t// in\n    tag_78:\n        /* \"#utility.yul\":2301:2440   */\n      swap1\n      pop\n        /* \"#utility.yul\":2199:2447   */\n      swap2\n      swap1\n      pop\n      jump\t// out\n        /* \"#utility.yul\":2453:2872   */\n    tag_38:\n        /* \"#utility.yul\":2619:2623   */\n      0x00\n        /* \"#utility.yul\":2657:2659   */\n      0x20\n        /* \"#utility.yul\":2646:2655   */\n      dup3\n        /* \"#utility.yul\":2642:2660   */\n      add\n        /* \"#utility.yul\":2634:2660   */\n      swap1\n      pop\n        /* \"#utility.yul\":2706:2715   */\n      dup2\n        /* \"#utility.yul\":2700:2704   */\n      dup2\n        /* \"#utility.yul\":2696:2716   */\n      sub\n        /* \"#utility.yul\":2692:2693   */\n      0x00\n        /* \"#utility.yul\":2681:2690   */\n      dup4\n        /* \"#utility.yul\":2677:2694   */\n      add\n        /* \"#utility.yul\":2670:2717   */\n      mstore\n        /* \"#utility.yul\":2734:2865   */\n      tag_80\n        /* \"#utility.yul\":2860:2864   */\n      dup2\n        /* \"#utility.yul\":2734:2865   */\n      tag_68\n      jump\t// in\n    tag_80:\n        /* \"#utility.yul\":2726:2865   */\n      swap1\n      pop\n        /* \"#utility.yul\":2624:2872   */\n      swap2\n      swap1\n      pop\n      jump\t// out\n        /* \"#utility.yul\":2878:3100   */\n    tag_21:\n        /* \"#utility.yul\":2971:2975   */\n      0x00\n        /* \"#utility.yul\":3009:3011   */\n      0x20\n        /* \"#utility.yul\":2998:3007   */\n      dup3\n        /* \"#utility.yul\":2994:3012   */\n      add\n        /* \"#utility.yul\":2986:3012   */\n      swap1\n      pop\n        /* \"#utility.yul\":3022:3093   */\n      tag_82\n        /* \"#utility.yul\":3090:3091   */\n      0x00\n        /* \"#utility.yul\":3079:3088   */\n      dup4\n        /* \"#utility.yul\":3075:3092   */\n      add\n        /* \"#utility.yul\":3066:3072   */\n      dup5\n        /* \"#utility.yul\":3022:3093   */\n      tag_73\n      jump\t// in\n    tag_82:\n        /* \"#utility.yul\":2976:3100   */\n      swap3\n      swap2\n      pop\n      pop\n      jump\t// out\n        /* \"#utility.yul\":3187:3356   */\n    tag_65:\n        /* \"#utility.yul\":3271:3282   */\n      0x00\n        /* \"#utility.yul\":3305:3311   */\n      dup3\n        /* \"#utility.yul\":3300:3303   */\n      dup3\n        /* \"#utility.yul\":3293:3312   */\n      mstore\n        /* \"#utility.yul\":3345:3349   */\n      0x20\n        /* \"#utility.yul\":3340:3343   */\n      dup3\n        /* \"#utility.yul\":3336:3350   */\n      add\n        /* \"#utility.yul\":3321:3350   */\n      swap1\n      pop\n        /* \"#utility.yul\":3283:3356   */\n      swap3\n      swap2\n      pop\n      pop\n      jump\t// out\n        /* \"#utility.yul\":3362:3667   */\n    tag_9:\n        /* \"#utility.yul\":3402:3405   */\n      0x00\n        /* \"#utility.yul\":3421:3441   */\n      tag_87\n        /* \"#utility.yul\":3439:3440   */\n      dup3\n        /* \"#utility.yul\":3421:3441   */\n      tag_76\n      jump\t// in\n    tag_87:\n        /* \"#utility.yul\":3416:3441   */\n      swap2\n      pop\n        /* \"#utility.yul\":3455:3475   */\n      tag_88\n        /* \"#utility.yul\":3473:3474   */\n      dup4\n        /* \"#utility.yul\":3455:3475   */\n      tag_76\n      jump\t// in\n    tag_88:\n        /* \"#utility.yul\":3450:3475   */\n      swap3\n      pop\n        /* \"#utility.yul\":3609:3610   */\n      dup3\n        /* \"#utility.yul\":3541:3607   */\n      0xffffffffffffffffffffffffffffffffffffffffffffffffffffffffffffffff\n        /* \"#utility.yul\":3537:3611   */\n      sub\n        /* \"#utility.yul\":3534:3535   */\n      dup3\n        /* \"#utility.yul\":3531:3612   */\n      gt\n        /* \"#utility.yul\":3528:3530   */\n      iszero\n      tag_89\n      jumpi\n        /* \"#utility.yul\":3615:3633   */\n      tag_90\n      tag_91\n      jump\t// in\n    tag_90:\n        /* \"#utility.yul\":3528:3530   */\n    tag_89:\n        /* \"#utility.yul\":3659:3660   */\n      dup3\n        /* \"#utility.yul\":3656:3657   */\n      dup3\n        /* \"#utility.yul\":3652:3661   */\n      add\n        /* \"#utility.yul\":3645:3661   */\n      swap1\n      pop\n        /* \"#utility.yul\":3406:3667   */\n      swap3\n      swap2\n      pop\n      pop\n      jump\t// out\n        /* \"#utility.yul\":3673:3864   */\n    tag_40:\n        /* \"#utility.yul\":3713:3717   */\n      0x00\n        /* \"#utility.yul\":3733:3753   */\n      tag_93\n        /* \"#utility.yul\":3751:3752   */\n      dup3\n        /* \"#utility.yul\":3733:3753   */\n      tag_76\n      jump\t// in\n    tag_93:\n        /* \"#utility.yul\":3728:3753   */\n      swap2\n      pop\n        /* \"#utility.yul\":3767:3787   */\n      tag_94\n        /* \"#utility.yul\":3785:3786   */\n      dup4\n        /* \"#utility.yul\":3767:3787   */\n      tag_76\n      jump\t// in\n    tag_94:\n        /* \"#utility.yul\":3762:3787   */\n      swap3\n      pop\n        /* \"#utility.yul\":3806:3807   */\n      dup3\n        /* \"#utility.yul\":3803:3804   */\n      dup3\n        /* \"#utility.yul\":3800:3808   */\n      lt\n        /* \"#utility.yul\":3797:3799   */\n      iszero\n      tag_95\n      jumpi\n        /* \"#utility.yul\":3811:3829   */\n      tag_96\n      tag_91\n      jump\t// in\n    tag_96:\n        /* \"#utility.yul\":3797:3799   */\n    tag_95:\n        /* \"#utility.yul\":3856:3857   */\n      dup3\n        /* \"#utility.yul\":3853:3854   */\n      dup3\n        /* \"#utility.yul\":3849:3858   */\n      sub\n        /* \"#utility.yul\":3841:3858   */\n      swap1\n      pop\n        /* \"#utility.yul\":3718:3864   */\n      swap3\n      swap2\n      pop\n      pop\n      jump\t// out\n        /* \"#utility.yul\":3870:3974   */\n    tag_97:\n        /* \"#utility.yul\":3915:3922   */\n      0x00\n        /* \"#utility.yul\":3944:3968   */\n      tag_99\n        /* \"#utility.yul\":3962:3967   */\n      dup3\n        /* \"#utility.yul\":3944:3968   */\n      tag_100\n      jump\t// in\n    tag_99:\n        /* \"#utility.yul\":3933:3968   */\n      swap1\n      pop\n        /* \"#utility.yul\":3923:3974   */\n      swap2\n      swap1\n      pop\n      jump\t// out\n        /* \"#utility.yul\":3980:4106   */\n    tag_100:\n        /* \"#utility.yul\":4017:4024   */\n      0x00\n        /* \"#utility.yul\":4057:4099   */\n      0xffffffffffffffffffffffffffffffffffffffff\n        /* \"#utility.yul\":4050:4055   */\n      dup3\n        /* \"#utility.yul\":4046:4100   */\n      and\n        /* \"#utility.yul\":4035:4100   */\n      swap1\n      pop\n        /* \"#utility.yul\":4025:4106   */\n      swap2\n      swap1\n      pop\n      jump\t// out\n        /* \"#utility.yul\":4112:4189   */\n    tag_76:\n        /* \"#utility.yul\":4149:4156   */\n      0x00\n        /* \"#utility.yul\":4178:4183   */\n      dup2\n        /* \"#utility.yul\":4167:4183   */\n      swap1\n      pop\n        /* \"#utility.yul\":4157:4189   */\n      swap2\n      swap1\n      pop\n      jump\t// out\n        /* \"#utility.yul\":4195:4428   */\n    tag_11:\n        /* \"#utility.yul\":4234:4237   */\n      0x00\n        /* \"#utility.yul\":4257:4281   */\n      tag_104\n        /* \"#utility.yul\":4275:4280   */\n      dup3\n        /* \"#utility.yul\":4257:4281   */\n      tag_76\n      jump\t// in\n    tag_104:\n        /* \"#utility.yul\":4248:4281   */\n      swap2\n      pop\n        /* \"#utility.yul\":4303:4369   */\n      0xffffffffffffffffffffffffffffffffffffffffffffffffffffffffffffffff\n        /* \"#utility.yul\":4296:4301   */\n      dup3\n        /* \"#utility.yul\":4293:4370   */\n      eq\n        /* \"#utility.yul\":4290:4292   */\n      iszero\n      tag_105\n      jumpi\n        /* \"#utility.yul\":4373:4391   */\n      tag_106\n      tag_91\n      jump\t// in\n    tag_106:\n        /* \"#utility.yul\":4290:4292   */\n    tag_105:\n        /* \"#utility.yul\":4420:4421   */\n      0x01\n        /* \"#utility.yul\":4413:4418   */\n      dup3\n        /* \"#utility.yul\":4409:4422   */\n      add\n        /* \"#utility.yul\":4402:4422   */\n      swap1\n      pop\n        /* \"#utility.yul\":4238:4428   */\n      swap2\n      swap1\n      pop\n      jump\t// out\n        /* \"#utility.yul\":4434:4614   */\n    tag_91:\n        /* \"#utility.yul\":4482:4559   */\n      0x4e487b7100000000000000000000000000000000000000000000000000000000\n        /* \"#utility.yul\":4479:4480   */\n      0x00\n        /* \"#utility.yul\":4472:4560   */\n      mstore\n        /* \"#utility.yul\":4579:4583   */\n      0x11\n        /* \"#utility.yul\":4576:4577   */\n      0x04\n        /* \"#utility.yul\":4569:4584   */\n      mstore\n        /* \"#utility.yul\":4603:4607   */\n      0x24\n        /* \"#utility.yul\":4600:4601   */\n      0x00\n        /* \"#utility.yul\":4593:4608   */\n      revert\n        /* \"#utility.yul\":4743:4860   */\n    tag_55:\n        /* \"#utility.yul\":4852:4853   */\n      0x00\n        /* \"#utility.yul\":4849:4850   */\n      dup1\n        /* \"#utility.yul\":4842:4854   */\n      revert\n        /* \"#utility.yul\":4866:5029   */\n    tag_67:\n        /* \"#utility.yul\":5006:5021   */\n      0x4e6f7420746865206f776e657200000000000000000000000000000000000000\n        /* \"#utility.yul\":5002:5003   */\n      0x00\n        /* \"#utility.yul\":4994:5000   */\n      dup3\n        /* \"#utility.yul\":4990:5004   */\n      add\n        /* \"#utility.yul\":4983:5022   */\n      mstore\n        /* \"#utility.yul\":4972:5029   */\n      pop\n      jump\t// out\n        /* \"#utility.yul\":5035:5202   */\n    tag_72:\n        /* \"#utility.yul\":5175:5194   */\n      0x4e6f7420656e6f756768742066756e6473000000000000000000000000000000\n        /* \"#utility.yul\":5171:5172   */\n      0x00\n        /* \"#utility.yul\":5163:5169   */\n      dup3\n        /* \"#utility.yul\":5159:5173   */\n      add\n        /* \"#utility.yul\":5152:5195   */\n      mstore\n        /* \"#utility.yul\":5141:5202   */\n      pop\n      jump\t// out\n        /* \"#utility.yul\":5208:5346   */\n    tag_47:\n        /* \"#utility.yul\":5289:5321   */\n      tag_114\n        /* \"#utility.yul\":5315:5320   */\n      dup2\n        /* \"#utility.yul\":5289:5321   */\n      tag_97\n      jump\t// in\n    tag_114:\n        /* \"#utility.yul\":5282:5287   */\n      dup2\n        /* \"#utility.yul\":5279:5322   */\n      eq\n        /* \"#utility.yul\":5269:5271   */\n      tag_115\n      jumpi\n        /* \"#utility.yul\":5336:5337   */\n      0x00\n        /* \"#utility.yul\":5333:5334   */\n      dup1\n        /* \"#utility.yul\":5326:5338   */\n      revert\n        /* \"#utility.yul\":5269:5271   */\n    tag_115:\n        /* \"#utility.yul\":5259:5346   */\n      pop\n      jump\t// out\n        /* \"#utility.yul\":5352:5474   */\n    tag_51:\n        /* \"#utility.yul\":5425:5449   */\n      tag_117\n        /* \"#utility.yul\":5443:5448   */\n      dup2\n        /* \"#utility.yul\":5425:5449   */\n      tag_76\n      jump\t// in\n    tag_117:\n        /* \"#utility.yul\":5418:5423   */\n      dup2\n        /* \"#utility.yul\":5415:5450   */\n      eq\n        /* \"#utility.yul\":5405:5407   */\n      tag_118\n      jumpi\n        /* \"#utility.yul\":5464:5465   */\n      0x00\n        /* \"#utility.yul\":5461:5462   */\n      dup1\n        /* \"#utility.yul\":5454:5466   */\n      revert\n        /* \"#utility.yul\":5405:5407   */\n    tag_118:\n        /* \"#utility.yul\":5395:5474   */\n      pop\n      jump\t// out\n\n    auxdata: 0xa264697066735822122056e30ac60916ded4ccc292252a220c3f19bc669206f19a6392780e7668a816d064736f6c63430008060033\n}\n",
				"bytecode": {
					"linkReferences": {},
					"object": "608060405234801561001057600080fd5b50336000806101000a81548173ffffffffffffffffffffffffffffffffffffffff021916908373ffffffffffffffffffffffffffffffffffffffff160217905550610824806100606000396000f3fe6080604052600436106100385760003560e01c80630adec93c146101bc57806312065fe0146101e5578063f274c89714610210576101b7565b366101b7576000604051806040016040528034815260200142815250905034600160003373ffffffffffffffffffffffffffffffffffffffff1673ffffffffffffffffffffffffffffffffffffffff16815260200190815260200160002060000160008282546100a8919061062b565b9250508190555080600160003373ffffffffffffffffffffffffffffffffffffffff1673ffffffffffffffffffffffffffffffffffffffff1681526020019081526020016000206002016000600160003373ffffffffffffffffffffffffffffffffffffffff1673ffffffffffffffffffffffffffffffffffffffff1681526020019081526020016000206001015481526020019081526020016000206000820151816000015560208201518160010155905050600160003373ffffffffffffffffffffffffffffffffffffffff1673ffffffffffffffffffffffffffffffffffffffff16815260200190815260200160002060010160008154809291906101af906106f1565b919050555050005b600080fd5b3480156101c857600080fd5b506101e360048036038101906101de91906104fd565b610239565b005b3480156101f157600080fd5b506101fa610313565b60405161020791906105ff565b60405180910390f35b34801561021c57600080fd5b506102376004803603810190610232919061052a565b6103aa565b005b6000600160003373ffffffffffffffffffffffffffffffffffffffff1673ffffffffffffffffffffffffffffffffffffffff1681526020019081526020016000206000015490506000600160003373ffffffffffffffffffffffffffffffffffffffff1673ffffffffffffffffffffffffffffffffffffffff168152602001908152602001600020600001819055508173ffffffffffffffffffffffffffffffffffffffff166108fc829081150290604051600060405180830381858888f1935050505015801561030e573d6000803e3d6000fd5b505050565b60008060009054906101000a900473ffffffffffffffffffffffffffffffffffffffff1673ffffffffffffffffffffffffffffffffffffffff163373ffffffffffffffffffffffffffffffffffffffff16146103a4576040517f08c379a000000000000000000000000000000000000000000000000000000000815260040161039b906105bf565b60405180910390fd5b47905090565b600160003373ffffffffffffffffffffffffffffffffffffffff1673ffffffffffffffffffffffffffffffffffffffff1681526020019081526020016000206000015481111561042f576040517f08c379a0000000000000000000000000000000000000000000000000000000008152600401610426906105df565b60405180910390fd5b80600160003373ffffffffffffffffffffffffffffffffffffffff1673ffffffffffffffffffffffffffffffffffffffff16815260200190815260200160002060000160008282546104819190610681565b925050819055508173ffffffffffffffffffffffffffffffffffffffff166108fc829081150290604051600060405180830381858888f193505050501580156104ce573d6000803e3d6000fd5b505050565b6000813590506104e2816107c0565b92915050565b6000813590506104f7816107d7565b92915050565b60006020828403121561051357610512610769565b5b6000610521848285016104d3565b91505092915050565b6000806040838503121561054157610540610769565b5b600061054f858286016104d3565b9250506020610560858286016104e8565b9150509250929050565b6000610577600d8361061a565b91506105828261076e565b602082019050919050565b600061059a60118361061a565b91506105a582610797565b602082019050919050565b6105b9816106e7565b82525050565b600060208201905081810360008301526105d88161056a565b9050919050565b600060208201905081810360008301526105f88161058d565b9050919050565b600060208201905061061460008301846105b0565b92915050565b600082825260208201905092915050565b6000610636826106e7565b9150610641836106e7565b9250827fffffffffffffffffffffffffffffffffffffffffffffffffffffffffffffffff038211156106765761067561073a565b5b828201905092915050565b600061068c826106e7565b9150610697836106e7565b9250828210156106aa576106a961073a565b5b828203905092915050565b60006106c0826106c7565b9050919050565b600073ffffffffffffffffffffffffffffffffffffffff82169050919050565b6000819050919050565b60006106fc826106e7565b91507fffffffffffffffffffffffffffffffffffffffffffffffffffffffffffffffff82141561072f5761072e61073a565b5b600182019050919050565b7f4e487b7100000000000000000000000000000000000000000000000000000000600052601160045260246000fd5b600080fd5b7f4e6f7420746865206f776e657200000000000000000000000000000000000000600082015250565b7f4e6f7420656e6f756768742066756e6473000000000000000000000000000000600082015250565b6107c9816106b5565b81146107d457600080fd5b50565b6107e0816106e7565b81146107eb57600080fd5b5056fea264697066735822122056e30ac60916ded4ccc292252a220c3f19bc669206f19a6392780e7668a816d064736f6c63430008060033",
					"opcodes": "PUSH1 0x80 PUSH1 0x40 MSTORE CALLVALUE DUP1 ISZERO PUSH2 0x10 JUMPI PUSH1 0x0 DUP1 REVERT JUMPDEST POP CALLER PUSH1 0x0 DUP1 PUSH2 0x100 EXP DUP2 SLOAD DUP2 PUSH20 0xFFFFFFFFFFFFFFFFFFFFFFFFFFFFFFFFFFFFFFFF MUL NOT AND SWAP1 DUP4 PUSH20 0xFFFFFFFFFFFFFFFFFFFFFFFFFFFFFFFFFFFFFFFF AND MUL OR SWAP1 SSTORE POP PUSH2 0x824 DUP1 PUSH2 0x60 PUSH1 0x0 CODECOPY PUSH1 0x0 RETURN INVALID PUSH1 0x80 PUSH1 0x40 MSTORE PUSH1 0x4 CALLDATASIZE LT PUSH2 0x38 JUMPI PUSH1 0x0 CALLDATALOAD PUSH1 0xE0 SHR DUP1 PUSH4 0xADEC93C EQ PUSH2 0x1BC JUMPI DUP1 PUSH4 0x12065FE0 EQ PUSH2 0x1E5 JUMPI DUP1 PUSH4 0xF274C897 EQ PUSH2 0x210 JUMPI PUSH2 0x1B7 JUMP JUMPDEST CALLDATASIZE PUSH2 0x1B7 JUMPI PUSH1 0x0 PUSH1 0x40 MLOAD DUP1 PUSH1 0x40 ADD PUSH1 0x40 MSTORE DUP1 CALLVALUE DUP2 MSTORE PUSH1 0x20 ADD TIMESTAMP DUP2 MSTORE POP SWAP1 POP CALLVALUE PUSH1 0x1 PUSH1 0x0 CALLER PUSH20 0xFFFFFFFFFFFFFFFFFFFFFFFFFFFFFFFFFFFFFFFF AND PUSH20 0xFFFFFFFFFFFFFFFFFFFFFFFFFFFFFFFFFFFFFFFF AND DUP2 MSTORE PUSH1 0x20 ADD SWAP1 DUP2 MSTORE PUSH1 0x20 ADD PUSH1 0x0 KECCAK256 PUSH1 0x0 ADD PUSH1 0x0 DUP3 DUP3 SLOAD PUSH2 0xA8 SWAP2 SWAP1 PUSH2 0x62B JUMP JUMPDEST SWAP3 POP POP DUP2 SWAP1 SSTORE POP DUP1 PUSH1 0x1 PUSH1 0x0 CALLER PUSH20 0xFFFFFFFFFFFFFFFFFFFFFFFFFFFFFFFFFFFFFFFF AND PUSH20 0xFFFFFFFFFFFFFFFFFFFFFFFFFFFFFFFFFFFFFFFF AND DUP2 MSTORE PUSH1 0x20 ADD SWAP1 DUP2 MSTORE PUSH1 0x20 ADD PUSH1 0x0 KECCAK256 PUSH1 0x2 ADD PUSH1 0x0 PUSH1 0x1 PUSH1 0x0 CALLER PUSH20 0xFFFFFFFFFFFFFFFFFFFFFFFFFFFFFFFFFFFFFFFF AND PUSH20 0xFFFFFFFFFFFFFFFFFFFFFFFFFFFFFFFFFFFFFFFF AND DUP2 MSTORE PUSH1 0x20 ADD SWAP1 DUP2 MSTORE PUSH1 0x20 ADD PUSH1 0x0 KECCAK256 PUSH1 0x1 ADD SLOAD DUP2 MSTORE PUSH1 0x20 ADD SWAP1 DUP2 MSTORE PUSH1 0x20 ADD PUSH1 0x0 KECCAK256 PUSH1 0x0 DUP3 ADD MLOAD DUP2 PUSH1 0x0 ADD SSTORE PUSH1 0x20 DUP3 ADD MLOAD DUP2 PUSH1 0x1 ADD SSTORE SWAP1 POP POP PUSH1 0x1 PUSH1 0x0 CALLER PUSH20 0xFFFFFFFFFFFFFFFFFFFFFFFFFFFFFFFFFFFFFFFF AND PUSH20 0xFFFFFFFFFFFFFFFFFFFFFFFFFFFFFFFFFFFFFFFF AND DUP2 MSTORE PUSH1 0x20 ADD SWAP1 DUP2 MSTORE PUSH1 0x20 ADD PUSH1 0x0 KECCAK256 PUSH1 0x1 ADD PUSH1 0x0 DUP2 SLOAD DUP1 SWAP3 SWAP2 SWAP1 PUSH2 0x1AF SWAP1 PUSH2 0x6F1 JUMP JUMPDEST SWAP2 SWAP1 POP SSTORE POP POP STOP JUMPDEST PUSH1 0x0 DUP1 REVERT JUMPDEST CALLVALUE DUP1 ISZERO PUSH2 0x1C8 JUMPI PUSH1 0x0 DUP1 REVERT JUMPDEST POP PUSH2 0x1E3 PUSH1 0x4 DUP1 CALLDATASIZE SUB DUP2 ADD SWAP1 PUSH2 0x1DE SWAP2 SWAP1 PUSH2 0x4FD JUMP JUMPDEST PUSH2 0x239 JUMP JUMPDEST STOP JUMPDEST CALLVALUE DUP1 ISZERO PUSH2 0x1F1 JUMPI PUSH1 0x0 DUP1 REVERT JUMPDEST POP PUSH2 0x1FA PUSH2 0x313 JUMP JUMPDEST PUSH1 0x40 MLOAD PUSH2 0x207 SWAP2 SWAP1 PUSH2 0x5FF JUMP JUMPDEST PUSH1 0x40 MLOAD DUP1 SWAP2 SUB SWAP1 RETURN JUMPDEST CALLVALUE DUP1 ISZERO PUSH2 0x21C JUMPI PUSH1 0x0 DUP1 REVERT JUMPDEST POP PUSH2 0x237 PUSH1 0x4 DUP1 CALLDATASIZE SUB DUP2 ADD SWAP1 PUSH2 0x232 SWAP2 SWAP1 PUSH2 0x52A JUMP JUMPDEST PUSH2 0x3AA JUMP JUMPDEST STOP JUMPDEST PUSH1 0x0 PUSH1 0x1 PUSH1 0x0 CALLER PUSH20 0xFFFFFFFFFFFFFFFFFFFFFFFFFFFFFFFFFFFFFFFF AND PUSH20 0xFFFFFFFFFFFFFFFFFFFFFFFFFFFFFFFFFFFFFFFF AND DUP2 MSTORE PUSH1 0x20 ADD SWAP1 DUP2 MSTORE PUSH1 0x20 ADD PUSH1 0x0 KECCAK256 PUSH1 0x0 ADD SLOAD SWAP1 POP PUSH1 0x0 PUSH1 0x1 PUSH1 0x0 CALLER PUSH20 0xFFFFFFFFFFFFFFFFFFFFFFFFFFFFFFFFFFFFFFFF AND PUSH20 0xFFFFFFFFFFFFFFFFFFFFFFFFFFFFFFFFFFFFFFFF AND DUP2 MSTORE PUSH1 0x20 ADD SWAP1 DUP2 MSTORE PUSH1 0x20 ADD PUSH1 0x0 KECCAK256 PUSH1 0x0 ADD DUP2 SWAP1 SSTORE POP DUP2 PUSH20 0xFFFFFFFFFFFFFFFFFFFFFFFFFFFFFFFFFFFFFFFF AND PUSH2 0x8FC DUP3 SWAP1 DUP2 ISZERO MUL SWAP1 PUSH1 0x40 MLOAD PUSH1 0x0 PUSH1 0x40 MLOAD DUP1 DUP4 SUB DUP2 DUP6 DUP9 DUP9 CALL SWAP4 POP POP POP POP ISZERO DUP1 ISZERO PUSH2 0x30E JUMPI RETURNDATASIZE PUSH1 0x0 DUP1 RETURNDATACOPY RETURNDATASIZE PUSH1 0x0 REVERT JUMPDEST POP POP POP JUMP JUMPDEST PUSH1 0x0 DUP1 PUSH1 0x0 SWAP1 SLOAD SWAP1 PUSH2 0x100 EXP SWAP1 DIV PUSH20 0xFFFFFFFFFFFFFFFFFFFFFFFFFFFFFFFFFFFFFFFF AND PUSH20 0xFFFFFFFFFFFFFFFFFFFFFFFFFFFFFFFFFFFFFFFF AND CALLER PUSH20 0xFFFFFFFFFFFFFFFFFFFFFFFFFFFFFFFFFFFFFFFF AND EQ PUSH2 0x3A4 JUMPI PUSH1 0x40 MLOAD PUSH32 0x8C379A000000000000000000000000000000000000000000000000000000000 DUP2 MSTORE PUSH1 0x4 ADD PUSH2 0x39B SWAP1 PUSH2 0x5BF JUMP JUMPDEST PUSH1 0x40 MLOAD DUP1 SWAP2 SUB SWAP1 REVERT JUMPDEST SELFBALANCE SWAP1 POP SWAP1 JUMP JUMPDEST PUSH1 0x1 PUSH1 0x0 CALLER PUSH20 0xFFFFFFFFFFFFFFFFFFFFFFFFFFFFFFFFFFFFFFFF AND PUSH20 0xFFFFFFFFFFFFFFFFFFFFFFFFFFFFFFFFFFFFFFFF AND DUP2 MSTORE PUSH1 0x20 ADD SWAP1 DUP2 MSTORE PUSH1 0x20 ADD PUSH1 0x0 KECCAK256 PUSH1 0x0 ADD SLOAD DUP2 GT ISZERO PUSH2 0x42F JUMPI PUSH1 0x40 MLOAD PUSH32 0x8C379A000000000000000000000000000000000000000000000000000000000 DUP2 MSTORE PUSH1 0x4 ADD PUSH2 0x426 SWAP1 PUSH2 0x5DF JUMP JUMPDEST PUSH1 0x40 MLOAD DUP1 SWAP2 SUB SWAP1 REVERT JUMPDEST DUP1 PUSH1 0x1 PUSH1 0x0 CALLER PUSH20 0xFFFFFFFFFFFFFFFFFFFFFFFFFFFFFFFFFFFFFFFF AND PUSH20 0xFFFFFFFFFFFFFFFFFFFFFFFFFFFFFFFFFFFFFFFF AND DUP2 MSTORE PUSH1 0x20 ADD SWAP1 DUP2 MSTORE PUSH1 0x20 ADD PUSH1 0x0 KECCAK256 PUSH1 0x0 ADD PUSH1 0x0 DUP3 DUP3 SLOAD PUSH2 0x481 SWAP2 SWAP1 PUSH2 0x681 JUMP JUMPDEST SWAP3 POP POP DUP2 SWAP1 SSTORE POP DUP2 PUSH20 0xFFFFFFFFFFFFFFFFFFFFFFFFFFFFFFFFFFFFFFFF AND PUSH2 0x8FC DUP3 SWAP1 DUP2 ISZERO MUL SWAP1 PUSH1 0x40 MLOAD PUSH1 0x0 PUSH1 0x40 MLOAD DUP1 DUP4 SUB DUP2 DUP6 DUP9 DUP9 CALL SWAP4 POP POP POP POP ISZERO DUP1 ISZERO PUSH2 0x4CE JUMPI RETURNDATASIZE PUSH1 0x0 DUP1 RETURNDATACOPY RETURNDATASIZE PUSH1 0x0 REVERT JUMPDEST POP POP POP JUMP JUMPDEST PUSH1 0x0 DUP2 CALLDATALOAD SWAP1 POP PUSH2 0x4E2 DUP2 PUSH2 0x7C0 JUMP JUMPDEST SWAP3 SWAP2 POP POP JUMP JUMPDEST PUSH1 0x0 DUP2 CALLDATALOAD SWAP1 POP PUSH2 0x4F7 DUP2 PUSH2 0x7D7 JUMP JUMPDEST SWAP3 SWAP2 POP POP JUMP JUMPDEST PUSH1 0x0 PUSH1 0x20 DUP3 DUP5 SUB SLT ISZERO PUSH2 0x513 JUMPI PUSH2 0x512 PUSH2 0x769 JUMP JUMPDEST JUMPDEST PUSH1 0x0 PUSH2 0x521 DUP5 DUP3 DUP6 ADD PUSH2 0x4D3 JUMP JUMPDEST SWAP2 POP POP SWAP3 SWAP2 POP POP JUMP JUMPDEST PUSH1 0x0 DUP1 PUSH1 0x40 DUP4 DUP6 SUB SLT ISZERO PUSH2 0x541 JUMPI PUSH2 0x540 PUSH2 0x769 JUMP JUMPDEST JUMPDEST PUSH1 0x0 PUSH2 0x54F DUP6 DUP3 DUP7 ADD PUSH2 0x4D3 JUMP JUMPDEST SWAP3 POP POP PUSH1 0x20 PUSH2 0x560 DUP6 DUP3 DUP7 ADD PUSH2 0x4E8 JUMP JUMPDEST SWAP2 POP POP SWAP3 POP SWAP3 SWAP1 POP JUMP JUMPDEST PUSH1 0x0 PUSH2 0x577 PUSH1 0xD DUP4 PUSH2 0x61A JUMP JUMPDEST SWAP2 POP PUSH2 0x582 DUP3 PUSH2 0x76E JUMP JUMPDEST PUSH1 0x20 DUP3 ADD SWAP1 POP SWAP2 SWAP1 POP JUMP JUMPDEST PUSH1 0x0 PUSH2 0x59A PUSH1 0x11 DUP4 PUSH2 0x61A JUMP JUMPDEST SWAP2 POP PUSH2 0x5A5 DUP3 PUSH2 0x797 JUMP JUMPDEST PUSH1 0x20 DUP3 ADD SWAP1 POP SWAP2 SWAP1 POP JUMP JUMPDEST PUSH2 0x5B9 DUP2 PUSH2 0x6E7 JUMP JUMPDEST DUP3 MSTORE POP POP JUMP JUMPDEST PUSH1 0x0 PUSH1 0x20 DUP3 ADD SWAP1 POP DUP2 DUP2 SUB PUSH1 0x0 DUP4 ADD MSTORE PUSH2 0x5D8 DUP2 PUSH2 0x56A JUMP JUMPDEST SWAP1 POP SWAP2 SWAP1 POP JUMP JUMPDEST PUSH1 0x0 PUSH1 0x20 DUP3 ADD SWAP1 POP DUP2 DUP2 SUB PUSH1 0x0 DUP4 ADD MSTORE PUSH2 0x5F8 DUP2 PUSH2 0x58D JUMP JUMPDEST SWAP1 POP SWAP2 SWAP1 POP JUMP JUMPDEST PUSH1 0x0 PUSH1 0x20 DUP3 ADD SWAP1 POP PUSH2 0x614 PUSH1 0x0 DUP4 ADD DUP5 PUSH2 0x5B0 JUMP JUMPDEST SWAP3 SWAP2 POP POP JUMP JUMPDEST PUSH1 0x0 DUP3 DUP3 MSTORE PUSH1 0x20 DUP3 ADD SWAP1 POP SWAP3 SWAP2 POP POP JUMP JUMPDEST PUSH1 0x0 PUSH2 0x636 DUP3 PUSH2 0x6E7 JUMP JUMPDEST SWAP2 POP PUSH2 0x641 DUP4 PUSH2 0x6E7 JUMP JUMPDEST SWAP3 POP DUP3 PUSH32 0xFFFFFFFFFFFFFFFFFFFFFFFFFFFFFFFFFFFFFFFFFFFFFFFFFFFFFFFFFFFFFFFF SUB DUP3 GT ISZERO PUSH2 0x676 JUMPI PUSH2 0x675 PUSH2 0x73A JUMP JUMPDEST JUMPDEST DUP3 DUP3 ADD SWAP1 POP SWAP3 SWAP2 POP POP JUMP JUMPDEST PUSH1 0x0 PUSH2 0x68C DUP3 PUSH2 0x6E7 JUMP JUMPDEST SWAP2 POP PUSH2 0x697 DUP4 PUSH2 0x6E7 JUMP JUMPDEST SWAP3 POP DUP3 DUP3 LT ISZERO PUSH2 0x6AA JUMPI PUSH2 0x6A9 PUSH2 0x73A JUMP JUMPDEST JUMPDEST DUP3 DUP3 SUB SWAP1 POP SWAP3 SWAP2 POP POP JUMP JUMPDEST PUSH1 0x0 PUSH2 0x6C0 DUP3 PUSH2 0x6C7 JUMP JUMPDEST SWAP1 POP SWAP2 SWAP1 POP JUMP JUMPDEST PUSH1 0x0 PUSH20 0xFFFFFFFFFFFFFFFFFFFFFFFFFFFFFFFFFFFFFFFF DUP3 AND SWAP1 POP SWAP2 SWAP1 POP JUMP JUMPDEST PUSH1 0x0 DUP2 SWAP1 POP SWAP2 SWAP1 POP JUMP JUMPDEST PUSH1 0x0 PUSH2 0x6FC DUP3 PUSH2 0x6E7 JUMP JUMPDEST SWAP2 POP PUSH32 0xFFFFFFFFFFFFFFFFFFFFFFFFFFFFFFFFFFFFFFFFFFFFFFFFFFFFFFFFFFFFFFFF DUP3 EQ ISZERO PUSH2 0x72F JUMPI PUSH2 0x72E PUSH2 0x73A JUMP JUMPDEST JUMPDEST PUSH1 0x1 DUP3 ADD SWAP1 POP SWAP2 SWAP1 POP JUMP JUMPDEST PUSH32 0x4E487B7100000000000000000000000000000000000000000000000000000000 PUSH1 0x0 MSTORE PUSH1 0x11 PUSH1 0x4 MSTORE PUSH1 0x24 PUSH1 0x0 REVERT JUMPDEST PUSH1 0x0 DUP1 REVERT JUMPDEST PUSH32 0x4E6F7420746865206F776E657200000000000000000000000000000000000000 PUSH1 0x0 DUP3 ADD MSTORE POP JUMP JUMPDEST PUSH32 0x4E6F7420656E6F756768742066756E6473000000000000000000000000000000 PUSH1 0x0 DUP3 ADD MSTORE POP JUMP JUMPDEST PUSH2 0x7C9 DUP2 PUSH2 0x6B5 JUMP JUMPDEST DUP2 EQ PUSH2 0x7D4 JUMPI PUSH1 0x0 DUP1 REVERT JUMPDEST POP JUMP JUMPDEST PUSH2 0x7E0 DUP2 PUSH2 0x6E7 JUMP JUMPDEST DUP2 EQ PUSH2 0x7EB JUMPI PUSH1 0x0 DUP1 REVERT JUMPDEST POP JUMP INVALID LOG2 PUSH5 0x6970667358 0x22 SLT KECCAK256 JUMP 0xE3 EXP 0xC6 MULMOD AND 0xDE 0xD4 0xCC 0xC2 SWAP3 0x25 0x2A 0x22 0xC EXTCODEHASH NOT 0xBC PUSH7 0x9206F19A639278 0xE PUSH23 0x68A816D064736F6C634300080600330000000000000000 "
				},
				"gasEstimates": {
					"creation": {
						"codeDepositCost": "416800",
						"executionCost": "24721",
						"totalCost": "441521"
					},
					"external": {
						"getBalance()": "2606",
						"withdrawAllMoney(address)": "infinite",
						"withdrawMoney(address,uint256)": "infinite"
					}
				},
				"methodIdentifiers": {
					"getBalance()": "12065fe0",
					"withdrawAllMoney(address)": "0adec93c",
					"withdrawMoney(address,uint256)": "f274c897"
				}
			},
			"storageLayout": {
				"storage": [
					{
						"astId": 3,
						"contract": "Wallet.sol:Wallet",
						"label": "owner",
						"offset": 0,
						"slot": "0",
						"type": "t_address"
					},
					{
						"astId": 50,
						"contract": "Wallet.sol:Wallet",
						"label": "Wallets",
						"offset": 0,
						"slot": "1",
						"type": "t_mapping(t_address,t_struct(Balance)45_storage)"
					}
				],
				"types": {
					"t_address": {
						"encoding": "inplace",
						"label": "address",
						"numberOfBytes": "20"
					},
					"t_mapping(t_address,t_struct(Balance)45_storage)": {
						"encoding": "mapping",
						"key": "t_address",
						"label": "mapping(address => struct Wallet.Balance)",
						"numberOfBytes": "32",
						"value": "t_struct(Balance)45_storage"
					},
					"t_mapping(t_uint256,t_struct(Payment)35_storage)": {
						"encoding": "mapping",
						"key": "t_uint256",
						"label": "mapping(uint256 => struct Wallet.Payment)",
						"numberOfBytes": "32",
						"value": "t_struct(Payment)35_storage"
					},
					"t_struct(Balance)45_storage": {
						"encoding": "inplace",
						"label": "struct Wallet.Balance",
						"members": [
							{
								"astId": 37,
								"contract": "Wallet.sol:Wallet",
								"label": "totalBalance",
								"offset": 0,
								"slot": "0",
								"type": "t_uint256"
							},
							{
								"astId": 39,
								"contract": "Wallet.sol:Wallet",
								"label": "numPayments",
								"offset": 0,
								"slot": "1",
								"type": "t_uint256"
							},
							{
								"astId": 44,
								"contract": "Wallet.sol:Wallet",
								"label": "payments",
								"offset": 0,
								"slot": "2",
								"type": "t_mapping(t_uint256,t_struct(Payment)35_storage)"
							}
						],
						"numberOfBytes": "96"
					},
					"t_struct(Payment)35_storage": {
						"encoding": "inplace",
						"label": "struct Wallet.Payment",
						"members": [
							{
								"astId": 32,
								"contract": "Wallet.sol:Wallet",
								"label": "amount",
								"offset": 0,
								"slot": "0",
								"type": "t_uint256"
							},
							{
								"astId": 34,
								"contract": "Wallet.sol:Wallet",
								"label": "timestamp",
								"offset": 0,
								"slot": "1",
								"type": "t_uint256"
							}
						],
						"numberOfBytes": "64"
					},
					"t_uint256": {
						"encoding": "inplace",
						"label": "uint256",
						"numberOfBytes": "32"
					}
				}
			},
			"userdoc": {
				"kind": "user",
				"methods": {},
				"version": 1
			}
		}
	}
}